:107000006BC00000AAC000008EC000008CC0000051
:107010008AC0000088C0000086C0000084C0000054
:1070200082C0000080C000007EC000007CC0000064
:107030007AC0000078C0000076C0000074C0000074
:1070400072C0000070C000006EC000006CC0000084
:107050006AC0000068C0000066C0000064C0000094
:1070600062C0000060C00000EC2DFD2DB7B6B0FC82
:10707000FDCF27BFE895B7B6B0FCFDCF21E1B7B68D
:10708000B6FCF4CF0895040309041C0377007700CD
:1070900077002E00660069007300630068006C00D2
:1070A0002E00640065000E0355005300420061008D
:1070B0007300700012011001FF000008C016DC050B
:1070C00002010102000109021200010100803209DF
:1070D000040000000000000011241FBECFEFD8E024
:1070E000DEBFCDBF34B7D8E0CEEF29912833299148
:1070F00009F02FEF20933D0130933E0111E0A0E015
:10710000B1E0ECE8F8E702C005900D92A630B107B7
:10711000D9F711E0A6E0B1E001C01D92AD33B1078F
:10712000E1F793D1B1C36CCFA82FB92F80E090E0E5
:1071300041E050EA609530E009C02D918227979593
:10714000879510F084279527305EC8F36F5FA8F30A
:107150000895EADF8D939D930895CF93CFB7CF9392
:10716000DF93C3954B9BE9F74B9B0BC04B9B09C02F
:107170004B9B07C04B9B05C04B9B03C04B9B01C067
:1071800089C06F93C0912001DD27C95DDE4F2F9329
:1071900065E54B9B03C02F916F91E6CF0F931F9333
:1071A0004F9320E040E15F9309B10C7003FB27F996
:1071B0003F9350E03BE039C01C7040642F77012FB3
:1071C0005F5F1EC0406819B11C702F7752501FC0FE
:1071D000406409B12F770C70D1F15F5F00C023C00C
:1071E000406219B12F771C7091F15F5F00C025C01C
:1071F0000C701027515012F45D5F0000115027955C
:107200002C3F19B1C8F61C700127015027952C3F5F
:10721000C8F64227499309B10C7010274F731150DB
:1072200027952C3FA8F64695469519B11C7079F024
:107230000127015027952C3F98F66B5A60F3315087
:1072400009B1B0F600C011E01CBB002717C03B50CD
:107250003195C31BD04011E01CBB0881033CF9F001
:107260000B34E9F020911E011981110F1213EDCF9B
:10727000093651F10D3211F0013E39F70093250125
:107280003F915F914F911F910F912F916F91CCB3CF
:10729000C0FD67CFDF91CF91CFBFCF9118952091DF
:1072A0002501222369F310912301112339F534308C
:1072B0003AF13093230120931F01109120013BE00C
:1072C000311B309320011CC0009123010130B4F424
:1072D0000AE53091000134FD14C000930001C3E1C0
:1072E000D1E013C0052710E000C000000BB91AC0A0
:1072F000052710E0221F1DC010E021C04AE502C092
:1073000032ED432FC4E1D0E032E01AB11C605B9A49
:107310000BB11AB95CE020E865E320FF05270BB943
:10732000279517951C3FF0F66695B8F7B1F720FF43
:1073300005270BB9279517951C3FD0F6279517956C
:1073400017FF052700001C3F0BB9B0F629913A95AD
:1073500019F7037F10912401110FC651D0400BB9CA
:1073600011F010931E0111E01CBB08601AB1137FCD
:10737000402F437F54E05A95F1F70BB91AB94BB936
:107380007FCFFB01A89531978040E1F70895DC019C
:1073900013962C91139714969C91149712968C9196
:1073A0001297803339F49370E92FF0E0EE5FFE4FCF
:1073B00080810895F22FE92F883549F4222391F432
:1073C000E1E0F0E089E080935700849108958035F2
:1073D000D9F4222381F4E0E0F0E089E080935700C3
:1073E00084910895283051F5E3E0F0E089E080933E
:1073F000570084910895283009F5E2E0F0E089E033
:107400008093570084910895803221F4EE0FFF1F7E
:1074100084910895883229F4EE0FFF1F31968491EC
:107420000895803A11F4CF0119C2803C29F4CF01AC
:1074300015966C911BD202C08F3F11F080E0089529
:1074400081EF80930B0180E008951AB881E08BB939
:1074500085BF82E085BF60E071E793DF80913E01E8
:10746000877F21F480913D01882311F04899E8C17C
:107470008EEF80930B0114BE88E10FB6F8948093D1
:107480006000109260000FBE80916900826080935E
:107490006900E89A539A8CE060E075E372DF5398D4
:1074A000789490912301935097FD31C180912001F0
:1074B000CCE0D0E0C81BD109C95DDE4F80911F012F
:1074C0008D3209F0BAC0983009F01FC183EC809367
:1074D00013018AE58093000110920A013881832FFD
:1074E000807629818823D1F186E091E09093220172
:1074F00080932101233031F4CE0149DF80930901CB
:1075000024E091C0253041F12A3031F1822F84509E
:107510008630A8F48A819B8190930D0180930C01A1
:107520002930C1F08E8180930E018D81827080930D
:107530000F012093100137FD71C09FEF70C0223002
:1075400021F480910B018E7F03C080910B0181603B
:1075500080930B0120E067C021E065C08A81109212
:107560001C01222331F410921D018CE191E022E0F4
:1075700050C0253019F48093240148C02630B1F55D
:107580008B81813019F484EB90E704C0823041F4A0
:1075900086EC90E7909322018093210122E122C0A2
:1075A0008330F9F48A81882341F486E890E7909348
:1075B00022018093210124E015C0813041F48AE842
:1075C00090E790932201809321012CE10BC082303F
:1075D00041F486EA90E790932201809321012EE006
:1075E00001C020E080E480930A011DC0283019F416
:1075F00086E291E009C0293019F48093260106C083
:107600002A3021F48CE191E021E003C08CE191E08B
:1076100020E0909322018093210105C09E8180E8A3
:1076200080930A0107C08F81882319F49E819217E5
:1076300008F0922F9093010168C080910A0187FFA2
:1076400064C080910E01092F891708F4082F801B50
:1076500080930E01FF24882311F4FF24F39410E09B
:107660004DC080911001E0910C01F0910D01873027
:1076700058F03196F0930D01E0930C013197699128
:10768000CF01F4D01F5F3AC080E7E030F80708F080
:107690003AC01E5FF8948991999121E00C012093E2
:1076A0005700E89511247894CF01029690930D012C
:1076B00080930C018F779070892B41F0FF20F1F0BF
:1076C0001017E0F080910F018823C1F0F89483E057
:1076D00080935700E895789407B600FCFDCFF894A6
:1076E00085E080935700E895789407B600FCFDCFBD
:1076F000F89481E180935700E8957894101708F486
:10770000B0CFFF2011F0109201011092230180915F
:10771000000184FF71C0809101018F3F09F46CC0AA
:10772000182F893008F018E0811B809301018091A7
:10773000130198E8892780931301112309F44AC0A3
:1077400080910A0187FF2AC080910E01811708F4F9
:10775000182F811B80930E0100911001C4E1D1E02C
:1077600015C0E0910C01F0910D01073018F0CF0128
:1077700075D001C084918883219680910C019091ED
:107780000D01019690930D0180930C01812F90E0E3
:107790008C5E9E4FC817D90721F71AC0E0912101CE
:1077A000F091220186FF09C0912FA4E1B1E08491FC
:1077B0008D9331969150D9F707C0912FA4E1B1E094
:1077C00081918D939150E1F7F0932201E093210193
:1077D000193060F484E191E0612FBBDC612F6C5FB4
:1077E0006C3041F08FEF8093010104C08FEF8093E4
:1077F00001016EE16093000194E189B18C7031F474
:107800009150D9F71092240110921E0180910B0122
:10781000803130F0489B0FC080910B01805109C02E
:10782000489909C080910B01823028F080910B01AA
:10783000825080930B0180910B01882309F031CE97
:10784000F894539A1BB81DBA1092690081E085BF65
:1078500015BEE0911101F09112010995F999FECF41
:1078600092BD81BDF89A992780B50895262FF99980
:10787000FECF1FBA92BD81BD20BD0FB6F894FA9A13
:0C788000F99A0FBE01960895F894FFCF0E
:06788C005AFF1E950F00DB
:040000030000700089
:00000001FF
